:020000040800F2
:1000000028D8012055020008114E00087902000886
:100010000F4E00085D15000885560008000000001E
:100020000000000000000000000000009D0100082A
:10003000E11A000800000000F101000885500008E6
:100040006F0200086F0200086F0200086F020008CC
:100050006F0200086F020008A11D00086F0200086F
:100060006F0200086F0200086F0200086F020008AC
:100070006F0200086F0200086F0200086F0200089C
:100080006F0200086F0200086F0200086F0200088C
:100090006F0200086F0200086F020008A51D00082B
:1000A0006F0200086F0200086F0200086F0200086C
:1000B0006F0200086F0200086F0200086F0200085C
:1000C0006F0200086F0200086F0200086F0200084C
:1000D0006F0200086D5600086F0200086F020008EA
:1000E0006F0200086F0200086F0200086F0200082C
:1000F0006F0200086F0200086F0200086F0200081C
:100100006F0200086F0200086F0200086F0200080B
:100110006F0200086F0200086F0200086F020008FB
:100120006F0200086F0200086F0200086F020008EB
:100130006F0200087D1B00086F0200086F020008B4
:100140006F0200086F0200086F0200086F020008CB
:100150006F0200086F0200086F0200086F020008BB
:100160006F0200086F0200086F0200086F020008AB
:100170006F0200086F0200086F0200080000000014
:100180006F0200086F020008DFF80CD000F038FEA4
:1001900000480047BDCF020828D801202A4B196823
:1001A0000868B0E8F04F80F30988BFF36F8F4FF015
:1001B000000080F3118870470000000006480068C6
:1001C000006880F3088862B661B6BFF34F8FBFF353
:1001D0006F8F00DF00BF00BF08ED00E0DFF80C000C
:1001E000016841F470010160704700BF88ED00E0D4
:1001F000EFF30980BFF36F8F134B1A681EF0100FD7
:1002000008BF20ED108A20E9F04F106008B44FF0CD
:10021000500080F31188BFF34F8FBFF36F8F3BF017
:1002200039FA4FF0000080F3118808BC196808689B
:10023000B0E8F04F1EF0100F08BFB0EC108A80F34A
:100240000988BFF36F8F704724000010EFF305801B
:10025000704700000648804706480047FEE7FEE773
:10026000FEE7FEE7FEE7FEE7FEE7FEE7FEE7FEE766
:100270006D510008890100087046694609F044FF85
:10028000FFF7FEFF2DE9F05F0546002092469B46F2
:1002900088460646814640241BE02846414647469C
:1002A000224600F0E0FB53465A46C01A914110D353
:1002B00011461846224600F0C7FB2D1A67EB0108CD
:1002C0004F4622460120002100F0BEFB17EB00093B
:1002D0004E41201EA4F10104DFDC484631462A4687
:1002E0004346BDE8F09F000000487047F421040831
:1002F00010B50446FFF7F8FF0068005D00F001004C
:1003000010BDA0F14101192900D82030704700002C
:100310000649074A0868504343F23902104408600E
:10032000400870470149086070470000FC01001058
:100330006D4EC64110B5431A934209D283188818EE
:1003400003E010F8011D03F8011D521EF9D210BD83
:1003500040EA01039B0703D009E008C9121F08C047
:10036000042AFAD203E011F8013B00F8013B521EC7
:10037000F9D210BDD2B201E000F8012B491EFBD228
:1003800070470022F6E710B513460A4604461946A0
:10039000FFF7F0FF204610BD10B5044604E00B78CF
:1003A00000F8013B03B1491C521EF8D2204610BD93
:1003B000421C10F8011B0029FBD1801A704710B5B0
:1003C000002200E0521C835C8C5CA34201D1002B14
:1003D000F8D1D8B2E1B2401A10BD30B504460020C1
:1003E000034600E05B1C934203D2E05CCD5C401B03
:1003F000F8D030BD034611F8012B00F8012B002A7C
:10040000F9D11846704700000FB400B58DB010A99F
:1004100009900B9000914FF0FF300A9000200C9053
:1004200005480690054807906A4609A80F9900F00C
:1004300031FB0DB05DF814FBB10A0008CF0A0008CB
:100440002DE9FF4F087883B09946FF2805D0491C55
:100450002D2804D00024002008E000200BE0012417
:10046000F9E700EB800003EB4000491C0B78FF2B01
:10047000F7D104B1404200230293147819461D4677
:100480002D2C01D02B2C04D1521C2D2C13D0002448
:100490000294AA461478FF2C0FD00A25A3FB0578F6
:1004A00001FB05814FF0000C03FB0C11521CE319FA
:1004B0004AEB0101EEE70124EAE7814453EA010037
:1004C00002D019F5C87F06DA03980021C0E90011AF
:1004D00007B0BDE8F08F0025AE4E2F46DFF8B8829A
:1004E000184600F04DFCCDE90001B9F1000002DA38
:1004F000C9F1000400E004460023A74A1AEB030BED
:1005000042EB045A12E0E00707D02A463346384649
:10051000414600F045F9074688462A4633461046CC
:10052000194600F03DF905460E466410002CEAD14C
:10053000DDE90001B9F1000F5A46534606DA00F032
:10054000A1F93A46434600F09DF905E000F028F98C
:100550003A46434600F024F9029A0AB181F000417C
:10056000039AC2E90001B3E72DE9FF4F1F468DB0A2
:10057000D7E901464FF0FF382E2045464FF00009DD
:100580000B90B9696D1C0E988847396A8246884776
:100590000028F6D1BAF1FF3F0AD024F4D064002E2F
:1005A00011DDBAF12B0F08D0BAF12D0F0BD102E0FB
:1005B000404611B08DE744F48064B9696D1C0E9813
:1005C00088478246761E6946600501D52D2000E0E9
:1005D0002B208DF8000001F1010B0DF1200809E03E
:1005E000B9696D1C0E98884782460F9844F40074D0
:1005F000761E0560002E02DDBAF1300FF0D00B99A7
:100600008A453ED144F0800406E00F99681CA9F1A8
:10061000010944F400740860B9696D1C761E0E98D7
:10062000884782463028F0D02BE00B998A4505D1C7
:10063000200603D444F08004761E18E0504605F0EE
:1006400046FA08B30DF11301761E44F400748B458D
:1006500008D2AAF130000BF8010B200607D5A9F14A
:10066000010003E0200602D409F101008146A00543
:1006700002D50F99681C0860B9696D1C0E988847EF
:100680008246002ED1DC53E0002E51DDBAF1650F19
:1006900002D0BAF1450F4BD1A00549D5B9696D1CFF
:1006A00024F44074761E0E9888478246002E0CDD96
:1006B0002B2804D0BAF12D0F07D144F48074B96906
:1006C0006D1C0E9888478246761EE00501D52D21C7
:1006D00000E02B2108F8011BCDF82C8021E00DF162
:1006E0002901761E44F4007488450CD2AAF130002A
:1006F00010F0FF0088F8000002D10B99884509D955
:1007000008F1010806E0E00501D5244801E042F2C5
:100710000F708146B9696D1C0E98884782460F9804
:100720000560002E04DD504605F0D1F90028D6D131
:10073000F9690E988847FF208BF8000088F80000C0
:100740000020069007904B466A4608A906A8FFF7C6
:1007500077FEA00502D46FF001002AE714F0240F01
:100760000AD0E00714D1DDE906123868031D3B60AA
:100770000068C0E900120BE0DDE9060100F024FB8F
:100780000146E00704D13868021D3A600068016044
:1007900028460EE7000014400000F03FF1D8FFFFAC
:1007A0002DE9FE4F81EA030404F0004421F00041EA
:1007B00000944FF0000B23F0004350EA01045ED098
:1007C00052EA03045BD0C3F30A54C1F30A552C4424
:1007D000A4F2F3340194A0FB0254C1F3130141F4D9
:1007E0008011C3F3130343F4801301FB024400FBA5
:1007F000034E840A970A44EA815447EA8357A4FBCC
:10080000076802958D0A05FB07854FEA932C04FBC8
:100810000C542705029D4FEA065847EA1637B5EBF8
:1008200008056EEB070C870E920E47EA811742EA25
:100830008312A7FB0201B6EB0B0164EB00042B0D46
:1008400043EA0C335E1844EB1C50DA465146E7FB92
:100850000201C5F313044FEA0B3343EA14534FEA82
:100860000432019C43EA0603A4F10C040294009CA8
:10087000CDE900B400F04BF903B0BDE8F08F0020E3
:100880000146F9E72DE9F04D81EA030404F0004B3D
:1008900021F0004514464FF0000A23F0004150EAD1
:1008A000050220D054EA01021DD0C5F30A570246C2
:1008B000C5F31303C1F31300C1F30A5640F48015C6
:1008C00043F48013A7EB0608101BD64608F2FD3848
:1008D00073EB050002D308F1010801E092185B41B7
:1008E000B8F1000F03DA00200146BDE8F08D0020CA
:1008F0004FF48011064684460EE0171B73EB050784
:1009000005D3121B63EB050306434CEA010C4908AF
:100910004FEA300092185B4150EA0107EDD152EAEC
:10092000030012D082EA040083EA0501084305D0DF
:10093000101BAB4106D20122002306E000224FF03B
:10094000004302E06FF0010253101AEB06004CEB7B
:10095000085110EB0A0041EB0B01BDE8F04D00F02F
:10096000C7B80EB540F2334102910021CDE9001124
:100970000A460B4600F0CBF803B000BD70B5C1F3DA
:100980000A5201F000450024C1F3130140F2FF3385
:1009900041F480119A4201DA002070BD40F23343E5
:1009A0009A42A2F2334203DC524200F05CF800E0CB
:1009B00090402C43F1D0404270BD000030B5041E81
:1009C00071F1000404DB4FF00044404264EB01018C
:1009D000141E73F1000405DB1C464FF00043524225
:1009E00063EB04038B4208BF824230BD30B5041E66
:1009F00071F1000404DB4FF00044404264EB01015C
:100A0000141E73F1000405DB1C464FF000435242F4
:100A100063EB0403994208BF904230BD30B50B46EA
:100A2000014600202022012409E021FA02F59D421E
:100A300005D303FA02F5491B04FA02F52844151EF2
:100A4000A2F10102F1DC30BD202A04DB203A00FAD9
:100A500002F1002070479140C2F1200320FA03F315
:100A6000194390407047202A04DB203A21FA02F013
:100A70000021704721FA02F3D040C2F120029140D8
:100A8000084319467047000002681144137801605A
:100A900018467047D1600449516104491162002130
:100AA0001161114600F0D0B9890A0008F10200086E
:100AB000426842B1016811F8013B23B1521EC0E9FE
:100AC0000012184670470121C160881E70474268B5
:100AD0005AB1C368016843B983688B4205D0491E87
:100AE000521CC0E90012002070474FF0FF307047E1
:100AF00010B5141E73F1000408DA401C41F1000126
:100B000092185B411A4301D120F0010010BD2DE97C
:100B1000F04D92469B4611B1B1FA81F202E0B0FA73
:100B200080F220329046FFF78FFF04460F4640EADE
:100B30000A0041EA0B0153465A46084313D01146B6
:100B400053EA010019D0C8F140025046FFF78BFF6D
:100B500005460E46504659464246FFF775FF084384
:100B600005D0012004E020463946BDE8F08D002084
:100B7000054346EAE0762C4337430A986305E40AC6
:100B8000A0EB08000022FD0A44EA47540A3002D5CF
:100B900000200146E9E7010510196941DDE9084532
:100BA00000196941BDE8F04DA2E72DE9FE4F8046EE
:100BB00081EA0300C00F0C46009021F0004123F0B1
:100BC0000045B8EB0200A94105D2404621469046B7
:100BD0001C460B46024623F00040104347D0270D29
:100BE000C7F30A00C3F30A510290401A019040284B
:100BF0006BDAC3F3130040F4801B0098924620B1D7
:100C00000023D2EB030A63EB0B0B01985946C0F1AA
:100C100040025046FFF718FF06460D46504659461B
:100C2000019A00F0FFF810EB08006141002487EA08
:100C3000115284EAE7731A4340D0009A62B3019AD2
:100C4000012A4FEA075215DC001B61EB02014FF04D
:100C5000004202EA0752CDE90042001C41F5801132
:100C600032462B46FFF753FF03B0BDE8F08F4046F6
:100C70002146F9E7001B61EB0201001C41F58013DE
:100C800000185B412018A2F5001747EB030140EA6A
:100C9000D570B6196D4111E06D084FEA360645EA88
:100CA000C0754FEA0752001B61EB0201001C41F5C1
:100CB000801149084FEA30000019514132462B4655
:100CC00003B0BDE8F04FFFF713BF009801224000CA
:100CD0000023D0EB020263EBE073009821464FEA59
:100CE000E074B8EB000061EB0401E9E783F0004336
:100CF0005BE781F0004158E72DE9F041054621F01E
:100D000000400C46284309D0C4F30A5040F2334156
:100D1000884205DD28462146BDE8F0812846FBE7EC
:100D200040F2FE31884210DC0CDB4FEA043040EA2E
:100D3000155050EA053105D0104804F00041014338
:100D40000020E9E700200146E6E7A0F233404642F2
:100D5000C6F1400228462146FFF776FE0746884640
:100D6000284621463246FFF77EFE43463A46FFF7C5
:100D7000BFFE3246BDE8F041FFF766BE0000F03F1F
:100D80000EB540F2334202920022CDE90022134612
:100D9000FFF7BDFE03B000BDC1F30A52C1F313015A
:100DA00040F2FF3341F480119A4202DA00200146FA
:100DB000704740F233439A42A2F2334202DC52427D
:100DC000FFF751BEFFF740BE01F0004330B421F001
:100DD000004150EA010206D00A0DA2F56072C1F38B
:100DE0001301002A02DC30BC00207047440F44EAA3
:100DF000C104C100E01830BC00EBC25000F0BAB929
:100E0000064C074D06E0E06840F0010394E8070057
:100E100098471034AC42F6D3FFF7BAF960310408B2
:100E2000A0310408202A06DBCB17203A41FA02F051
:100E300043EAE07306E041FA02F3D040C2F1200237
:100E400091400843194670472DE9F34F8BB04FF09E
:100E5000000801F10C000C464FF0010B46460DF165
:100E6000080A01906269012101989047051E2DD062
:100E7000252D2CD0216A8847C0B1626901210198D3
:100E80009047216A88470028F7D1411E626901987E
:100E9000904700E0761CA1690B988847216A884733
:100EA0000028F7D1E1690B988847DBE7A1690B9827
:100EB00088470746A84201D1761CD3E7E1690B9821
:100EC00088477F1C02D1B8F1000F6FD046E10027A0
:100ED00062693D463946019890472A2804D16269E3
:100EE0000121019890470125DFF884926269012170
:100EF00001989047A0F130010A290AD24F45E5DC5C
:100F000007EB870100EB4107303FDFD445F01005C8
:100F1000ECE7E90601D46FF000476C280AD04C28B2
:100F200014D0682815D06A280DD074281CD07A28CF
:100F30001AD01DE062690121019890476C2802D007
:100F400045F0040514E045F002050DE045F02005EC
:100F50000AE06269012101989047682802D045F0B3
:100F6000080505E045F40065626901210198904794
:100F7000C4E9015765283DD019DC58287AD00CDC2B
:100F8000452837D004DC252826D0412831D131E04E
:100F900046282FD047282CD12CE05B2877D0612819
:100FA00028D063287CD0642823D15AE0D0E06F2871
:100FB00048D008DC66281DD067281BD0692821D0BE
:100FC0006E2816D127E0702845D0732868D0752880
:100FD00047D078280DD14DE0A1690B988847054688
:100FE00025283FF469AFE1690B9888476D1C3FF4F1
:100FF0006AAFB3E023466A466FF001000B99FFF732
:10100000B3FA9EE045F040006060A80723464FF029
:10101000000236D43EE0E8077FF447AF2068011DA8
:1010200021600068290501D506701BE7290701D555
:10103000068017E7A90703D5F117C0E9006111E79A
:1010400006600FE745F040006060A80723464FF0B8
:10105000080216D41EE040F60E0125EA0100606089
:1010600016E045F040006060A80723464FF00A02F2
:1010700007D40FE045F040006060A80708D523467C
:1010800010226FF001000B99AFF3008059E007E0E8
:10109000234610226FF001000B99AFF3008050E05F
:1010A0004FF000094F464B46632802D05B2806D01C
:1010B00040E0E80601D40120A06001273AE062691F
:1010C0000121019890475E2805D14FF0010962691E
:1010D000494601989047216939B900210A4653468B
:1010E00043F82120491C0829FADBB0B3216969B90A
:1010F000C11700EBD16253110AEB830122F01F02EA
:10110000821A01200B68904003430B606269012141
:10111000019890475D28E8D1B9F1000F09D000206F
:10112000514651F82020D24341F82020401C082885
:10113000F7DB02AB224600976FF001000B99AFF38B
:10114000008000280CDA401C08D1BBF1000F05D04C
:101150004FF0FF300DB0BDE8F08FFFE74046F9E7F4
:10116000E90701D108F1010806444FF0000B79E6C8
:10117000CCCCCC0C0029A8BF7047401C490008BF4C
:1011800020F00100704710B4B0FA80FC00FA0CF0B7
:1011900050EA010404BF10BC704749B1CCF12004EF
:1011A00021FA04F411FA0CF118BF0121214308437C
:1011B000A3EB0C01CB1D4FEA00614FEA102042BFA8
:1011C000002010BC704700EBC35010440029A4BF9E
:1011D00010BC7047401C490008BF20F0010010BC43
:1011E000704770B58C1810F8015B15F0070301D13A
:1011F00010F8013B2A1106D110F8012B03E010F87A
:10120000016B01F8016B5B1EF9D12B0705D400239C
:10121000521E0DD401F8013BFAE710F8013BCB1A3E
:10122000921C03E013F8015B01F8015B521EF9D533
:10123000A142D8D3002070BD7CB50421002208460D
:101240003AF050FC2E4C206128B12EA004F0BCFADC
:1012500030A004F0B9FA0421002208463AF042FC1A
:10126000606128B127A004F0AFFA35A004F0ACFA11
:1012700003F0A6FF2CF07EFF39F036FF2048022154
:10128000001DCDE900104A02002338A13A483AF087
:10129000EDFE012805D11BA004F096FA37A004F05A
:1012A00093FA174803210830CDE900104FF4007578
:1012B00000232A4639A13C483AF0D8FE012805D13E
:1012C00010A004F081FA39A004F07EFA0C48042141
:1012D0000C30CDE9001000232A463CA13E483AF0EC
:1012E000C5FE012805D107A004F06EFA3BA004F06A
:1012F0006BFA20683AF078F8BDE87C4039F02EBFF0
:10130000000000100D0A5B44454255475D203E3EFB
:1013100020000000B4B4BDA84D5154545F4448545B
:1013200031315F446174615F5175657565CFFBCF85
:10133000A2B6D3C1D0B3C9B9A6210D0A00000000DE
:10134000B4B4BDA84C56474C5F44485431315F4457
:101350006174615F5175657565CFFBCFA2B6D3C16E
:10136000D0B3C9B9A6210D0A000000004448543189
:10137000315F5461736B0000911A0008437265611C
:1013800074652044485431315F5461736B20737528
:10139000636573732E2E2E0D0A000000546573745E
:1013A000325F5461736B00006552000843726561DF
:1013B00074652054657374325F5461736B20737568
:1013C000636573732E2E2E0A0A0000004E54505F80
:1013D000696E697400000000154E00084372656173
:1013E0007465204E54505F696E697420737563652F
:1013F00073732E2E2E0A0A0010B501F0E5FE00F0E0
:1014000073FD03F055FE02F077FF00F017FA05A216
:1014100006A108A008F0AAFFBDE8104008A004F04B
:10142000D3B9000056302E312E30000056312E3008
:101430002E3000004A49454A49452D463430370090
:101440002D2D2D2D2D2D2D2D2D2D2D204C776970F1
:101450002064656D6F202D2D2D2D2D2D2D2D2D2DE5
:101460002D2D0A001CB5244801F06AF900F0A6FCF5
:101470002248016841F00101016002208DF800005E
:1014800000218DF801108DF802108DF803108DF8F1
:1014900004108DF805101848194A026001224260B4
:1014A0000182C0F814D08261C161D1050162491284
:1014B0008160C910C16001F0E7F90446A4B111A030
:1014C00004F082F913A004F07FF90823184A19499F
:1014D000094801F0F8F8184A0823A2F500710648F7
:1014E00001F0BAF820461CBD06A004F06DF913A067
:1014F00004F06AF9E9E70000600200200090024071
:10150000008002400D0A5B44454255475D203E3E47
:1015100020000000657468206861726477617265FC
:1015200020696E6974206661696C642E2E2E0A0033
:1015300048340020A8030020A80400206574682017
:10154000686172647761726520696E697420737571
:10155000636573732E2E2E0A00000000FEE7000064
:101560000648016841F08071016005480021416032
:10157000016841F00101016070470000FCED00E0EE
:10158000001000E00148406870470000001000E0D3
:1015900001B50021009BA8204343FFF7F3FF02465B
:1015A000FFF7F0FF9042FBD003D9A0EB02021144F9
:1015B00003E06FEA02020244114402469942EFD36B
:1015C00008BD0000F8B5694634A02DF0A3F96846BF
:1015D00016F04EFF074636A004F0F6F83A462FA163
:1015E00037A004F0F1F83E4C40F25B7530A004F0F7
:1015F000EBF83CA004F0E8F82DA004F0E5F82A464A
:10160000394641A004F0E0F840F6B836294638469D
:1016100038F032FF6060002818DB25A004F0D4F811
:1016200042A004F0D1F822A004F0CEF845A004F0C6
:10163000CBF803F005FB002812D01DA004F0C4F87D
:1016400048A004F0C1F838F0F9FECFE718A004F084
:10165000BBF84DA004F0B8F8304639F08BFED5E762
:1016600013A004F0B1F854A004F0AEF8012257A181
:10167000606803F065FA002808DA0DA004F0A4F809
:1016800060A004F0A1F838F0D9FEAFE708A004F09C
:101690009BF862A004F098F8F8BD00006D717474B6
:1016A000732E6865636C6F7564732E636F6D0000D5
:1016B0000D0A5B44454255475D203E3E2000000038
:1016C000686F7374206E616D65203A202573202C3D
:1016D00020686F73745F6970203A2025730A0000D8
:1016E00018000010312EBFAACABCC1ACBDD3B6D4FD
:1016F000D3A6D4C6C6BDCCA8B5C4B7FECEF1C6F736
:101700002E2E2E0A00000000B7FECEF1C6F749507B
:10171000B5D8D6B7A3BA2573A3ACB6CBBFDABAC5D2
:10172000A3BA253064A3A10A00000000C1ACBDD358
:10173000D4C6C6BDCCA8B7FECEF1C6F7B3C9B9A60C
:10174000A3A10A00322E4D515454D3C3BBA7C3FBEF
:10175000D3EBC3D8D4BFD1E9D6A4B5C7C2BD2E2E12
:101760002E0A00004D515454D3C3BBA7C3FBD3EB87
:10177000C3D8D4BFD1E9D6A4B5C7C2BDCAA7B0DC0F
:101780002E2E2E0A00000000C1ACBDD3D4C6C6BDAB
:10179000CCA8B7FECEF1C6F7CAA7B0DCA3ACB5C8DB
:1017A000B4FD33C3EBD4D9B3A2CAD4D6D8D0C2C106
:1017B000ACBDD3A3A10A0000332EBFAACABCB6A9F0
:1017C000D4C4CFFBCFA22E2E2E0A0000247379732F
:1017D0002F58353836316A393930472F73746D33A5
:1017E00032663430377A6774362F7468696E672FC3
:1017F00070726F70657274792F706F73742F726569
:10180000706C7900BFCDBBA7B6CBB6A9D4C4CFFB53
:10181000CFA2CAA7B0DC2E2E2E0A0000342EBFAAFB
:10182000CABCD1ADBBB7BDD3CAD5B6A9D4C4B5C4A3
:10183000CFFBCFA22E2E2E0A0000000010B50C4CBC
:101840000A4820604FF4E13060600020A060E06052
:101850002061A0610C206061204602F040F8206801
:10186000C16841F02001C16010BD000000100140BE
:101870002002002008B50948016841F0100101600C
:10188000006800F01000009000F01CF80122BDE894
:1018900008400821024801F07CBC000030380240BA
:1018A0000010024000B585B0082000900020019093
:1018B000012002906946024801F082FB05B000BD9C
:1018C0000010024000B585B0082000900120019072
:1018D000022003906946024801F072FB05B000BD8A
:1018E000001002402DE9F047002600254FF47A77DA
:1018F000DFF880904FF0010809E0641CA4B2BC42FC
:1019000002D90020BDE8F0870120FFF741FE082141
:10191000484601F037FC0028EFD03220FFF738FEB0
:1019200000240821484601F02DFC012813D0C5F100
:10193000070008FA00F086436D1CEDB2082DE6D3CF
:101940003046DFE7641CA4B2BC4201D90020D9E7CD
:101950000120FFF71DFE0821484601F013FC012875
:10196000F0D00024C5F1070008FA00F0C0B2064329
:10197000E2E70000001002402DE9F04704462DED9B
:10198000028BFFF79FFF3F4E00220821304601F0F7
:1019900000FC44F25060FFF7FBFD012208213046B5
:1019A00001F0F7FB1E20FFF7F3FDFFF77BFF082197
:1019B000304601F0E7FB20B10020BDEC028BBDE812
:1019C000F087002508E06D1CADB2642D01D9002020
:1019D000F3E70120FFF7DCFD0821304601F0D2FBE0
:1019E0000028F0D0002508E06D1CADB2642D01D9AF
:1019F0000020E2E70120FFF7CBFD0821304601F08F
:101A0000C1FB0128F0D0FFF76DFF2070FFF76AFFE0
:101A10006070FFF767FFA070FFF764FFE070FFF7EB
:101A200061FF207181462678657806EBC60000EBE1
:101A3000061005EB8000FEF794FF9FED138B53EC2F
:101A4000182BFEF71FFFC4E9020194F80280E77823
:101A500008EBC80000EB081007EB8000FEF781FFE1
:101A600053EC182BFEF70EFFC4E90401701908EBC4
:101A700007010844C1B2894501D101209DE700203A
:101A80009BE70000001002400000000000005940E9
:101A900008B5FFF765FDFFF7EDFE0F4E0F4C4FF455
:101AA000FA5739F021FB0C48FFF766FF054639F07D
:101AB00055FB0096012D0BD100231A46694620697B
:101AC0003AF06EF900231A46694660693AF068F9FF
:101AD000384639F04FFCE4E7000200100000001027
:101AE000704701B502E00098401E00900098002861
:101AF000F9D108BD01B502E00098401E00900098A1
:101B00000028F9D108BD006800F58050816941F0D6
:101B1000020181617047006800F58050816941F4DD
:101B2000005181617047000008B507494FF4FA522F
:101B30000968B1FBF2F14143009100BF0098411EDA
:101B40000091FAD208BD00000000002038B504461C
:101B5000206800F58050816941F48011816120681E
:101B600000F58050806900900120FFF7DDFF2068BC
:101B7000009900F58050816138BD000010B55020FB
:101B8000EFF3118480F31188BFF34F8FBFF36F8F92
:101B9000024800F038FE84F3118810BD6002002076
:101BA0001079537940EA0323074808440364117805
:101BB000D37841EA0361937852781B0443EA022206
:101BC0001143416470470000008002402DE9F0415C
:101BD000AEB00446002904D04FF40060E060C000BD
:101BE000A0600025119512951395149515951695DD
:101BF000E06900287DD017954FF400701890199572
:101C00001A951B951C951D9540271E971F9520958D
:101C1000219522952395249525952695802627960E
:101C2000289529952A952B952C952D952068026845
:101C300045490A40D4E902131943179B194341F45B
:101C40000071114301602068D0F80080012000F08D
:101C5000F1FC2068C0F80080206847602068476871
:101C6000012000F0E7FC206847602068856020685C
:101C7000C560206881694FF64172114041F08001D2
:101C8000816120688769012000F0D4FC20688761A9
:101C90002068C5612068C769012000F0CBFC20687E
:101CA000C7610195B0040290039501110491059557
:101CB000069507950895042109910A9040120B900A
:101CC00080010C9040120D900E960F951095206893
:101CD00000F5805081691D4A11401D4A0A43826106
:101CE000206800F580508569012000F0A3FC206881
:101CF00000E016E000F5805085612068154900F588
:101D000080500160206800F580500568012000F0D7
:101D100091FC206800F580500560A069012804D07E
:101D20000AE04FF48060179066E7206800F5805065
:101D3000C169094A1143C16162692EB02046BDE8FC
:101D4000F0410021FFF72CBF0F8120FF233FDEF879
:101D5000040020028020C1024000010038B5044682
:101D60002068016841F0040101602068006800906B
:101D70000120FFF7D9FE21680098086038BD38B50A
:101D800004462068016841F008010160206800688D
:101D900000900120FFF7C8FE21680098086038BD58
:101DA0007047000010B5044C2068C00503D500F052
:101DB00011FBA015206010BD143C014010B586B089
:101DC0001248016841F480710160006800F480707D
:101DD00000900120029003900220049001900C4C8E
:101DE00001A9204601F0ECF800220221204601F072
:101DF000D0F9052000F01EFC01220221204601F04E
:101E0000C8F9052000F016FC06B010BD30380240BD
:101E10000020024070B5B3F5804F05D06FF07041DF
:101E200040F82210002070BD50F82230084C2340AA
:101E3000D1E9004544EA05148D688E892D0245EAF2
:101E4000064589692C430C431C4340F82240E9E7CE
:101E50000000F0CFF0B50C6850F82450114A15403E
:101E6000D1E90123D1E903671A433E4332434E6966
:101E700032438E693243CE6932430E6A32434E6A30
:101E800032438E6A3243CE6A3243CE6B096B3243A1
:101E90000A432A43082B01D142F0400240F8242093
:101EA0000020F0BD8000F0FF70B5521C50F82230C9
:101EB00003F04043D1E9004544EA05148D688E895A
:101EC0002D0245EA06452C430D8A6D1E44EA055550
:101ED0000C7D8969A41E45EA04640C431C4340F848
:101EE0002240002070BD000008B51948016841F08B
:101EF00080010160016801F080010091016841F0FA
:101F000004010160016801F004010091016841F0E1
:101F100001010160016801F001010091016841F0D7
:101F200002010160016801F002010091016841F0C5
:101F300040010160016801F040010091016841F435
:101F400080710160006800F48070009008BD00009E
:101F500030380240FEB50020009001900290224CE3
:101F6000224F607800EB400007EB40008088401C67
:101F7000010A8DF800108DF801000A226946BA2086
:101F800000F054F8002801DA0020FEBD9DF80200A0
:101F90009DF8031000EB012085B29DF804009DF828
:101FA000051000EB012086B2607800EB400007EBE3
:101FB00040008088801D010A8DF800108DF8010016
:101FC00003226946BA2000F031F8002801DA002027
:101FD000FEBD9DF8020000F003033246294604A02E
:101FE00003F0F2FB0120FEBD28000020D8DC03082E
:101FF0003C3C2D4754502D494E464F2D3E3E2058D7
:102000005F4D4158203D2025642C20595F4D41589B
:10201000203D2025642C2054524947474552203DFD
:10202000203078253032780A00000000F0B587B003
:102030000E4617464FF0FF3500240021ADF806107C
:102040008DF804000221ADF8081003960121ADF8C7
:1020500012108DF81000B81EADF81400B01C0690D8
:1020600007E0022101A801F0E2FD0546022D02D0A1
:10207000641C052CF5DB052C08DB707831782B46C9
:1020800040EA0121BA1E034803F09EFB07B0284630
:10209000F0BD00007C22040838B5002000901248F2
:1020A000407800EB4001114800EB41008088010AB4
:1020B0008DF800108DF801000024651E0DE003224C
:1020C0006946BA20FFF7B2FF45B2002D01DD284670
:1020D00038BD214606A003F077FB2046641CE4B21D
:1020E0000528ECD3284638BD28000020D8DC03089A
:1020F0003C3C2D4754502D4552524F522D3E3E20D0
:102100004754502069326320746573742066616996
:102110006C65642074696D652025642E0A000000DA
:10212000FEB50E4617464FF0FF3500240021ADF8EE
:1021300002108DF80000ADF80470029607E001214E
:10214000684601F074FD0546012D02D0641C052C83
:10215000F5DB052C08DB707831782B4640EA01214D
:10216000BA1E024803F030FB2846FEBDCC2204080C
:1021700010B501F053FDFFF78FFF0446002C04DA81
:1021800006A003F021FB204610BD00F01DF801F071
:10219000D1FCFFF7DFFE002010BD00003C3C2D47C6
:1021A00054502D4552524F522D3E3E20493243202D
:1021B000636F6D6D756E69636174696F6E204552F2
:1021C000524F52210A00000030B585B05048C16816
:1021D0008068CDE90301082203A9BA20FFF726FF92
:1021E0000446200005D54BA003F0EEFA204605B0CA
:1021F00030BD9DF80E10524D352918D09DF8112094
:10220000002A37D0372A51D09DF813309DF812009C
:10221000CDE9002302909DF810309DF80F2049A0D1
:1022200003F0D2FA9DF80E00392860D06DE09DF8D9
:1022300013209DF81130CDE900329DF81200029074
:102240009DF810309DF80F204AA003F0BDFA9DF8CC
:102250000E00352859D19DF80F00362855D19DF82C
:102260001000382851D19DF8110038284DD1022096
:1022700068704AE09DF812009DF81320CDE9002017
:102280009DF810309DF80F2046A003F09DFA9DF8B0
:102290000E00392839D19DF80F00312835D19DF82D
:1022A0001000312831D1012068702EE09DF81330E4
:1022B0009DF81200CDE9002302909DF810309DF8A2
:1022C0000F2020A003F080FA9DF80E0039281CD1C1
:1022D0009DF80F00312818D19DF81000342814D132
:1022E0009DF81100372810D1032068700DE09DF88B
:1022F0000F00312809D19DF81000352805D19DF82F
:102300001100372801D10420687020466FE70000D3
:10231000C8DC03083C3C2D4754502D4552524F52C7
:102320002D3E3E20475450207265616420766572D0
:1023300073696F6E206661696C65640A0000000055
:10234000280000203C3C2D4754502D494E464F2D2F
:102350003E3E204943332056657273696F6E3A20C2
:1023600025632563256325635F2530327825303268
:10237000780A00003C3C2D4754502D494E464F2DC5
:102380003E3E204943312056657273696F6E3A2094
:1023900025632563256325635F2530327825303238
:1023A000780A00003C3C2D4754502D494E464F2D95
:1023B0003E3E204943322056657273696F6E3A2063
:1023C0002563256325635F25303278253032780A0E
:1023D0000000000000F030B810B5054C0123237058
:1023E000231D23F81010991C21F8102010BD0000A7
:1023F00028000020054A4FF0FF3122F81010921CEF
:1024000022F810100020911F087070472C00002047
:1024100002490888421C0A8070470000180000101A
:1024200001480088704700002C0000200148008807
:10243000704700002E0000202DE9FF5F62A00068B9
:1024400003906248D0E90712406ACDE90012029079
:102450004FF0BA0B00260C2269465846FFF7E6FDFE
:102460000146002904DA5AA003F0AEF9BDE8FF9F47
:102470009DF802000028F9D0010676D500F00F057E
:10248000012D72D8DFF878A1E9460AF10208BAF8FE
:102490000800A84215D818E000246F1E0EE009EBD2
:1024A000C400C07800F00F0118F80600884207D079
:1024B000BC4201DBFFF79EFF641CE4B2AC42EED3EA
:1024C000761CBAF808008642E6DB7DB300245BE0A8
:1024D00009EBC402D07800F00F0608F80460107908
:1024E000517940EA01209179D37941EA0321137AA5
:1024F000527A43EA0223434A1278082A3ED2DFE89E
:1025000002F004090E161D242B35CAF80C00CAF877
:10251000101033E0CAF80C10CAF810002EE0C0F515
:10252000F070CAF80C00CAF8101027E02FE0CAF8C3
:102530000C10C0F5F070CAF810001FE0CAF80C00CB
:10254000C1F54870CAF8100018E0C1F54871CAF822
:102550000C10CAF8100011E0C0F5F070CAF80C00B9
:10256000C1F54870CAF8100008E020E0C1F54871D4
:10257000CAF80C10C0F5F070CAF81000DAE90312BE
:102580003046FFF729FF641CAC42A1DB0DE0BAF82E
:10259000080050B1002404E018F80400FFF72AFFF7
:1025A000641CBAF808008442F6DBAAF8085003223B
:1025B00003A95846FFF7B4FD0028BFF657AF12A095
:1025C00003F002F952E70000814E0000C8DC030866
:1025D0003C3C2D4754502D4552524F522D3E3E20EB
:1025E000493243207472616E73666572206572723F
:1025F0006F722E206572726E6F3A25640A200A008F
:1026000028000020100000203C3C2D4754502D494C
:102610004E464F2D3E3E2049324320777269746505
:1026200020656E645F636D64206572726F72210A4B
:102630000000000070B5044600F0B8FD0546601CBF
:1026400002D004480078044400F0B0FD401BA042D2
:10265000FAD370BD04000020F0B5002490F8455076
:10266000012D09D0012780F84570022580F84450DB
:10267000816244F2F45C19E00220F0BD01EB4415E4
:102680004FF000462E60C5F804C0C4EBC41606EB3C
:10269000460602EB8606AE6086695E1EB44203D231
:1026A00005F12006EE6000E0E960641C9C42E5D381
:1026B000026802F58052D16080F84470002180F8F1
:1026C00045100020F0BD2DE9F043002590F845406D
:1026D000012C0BD04FF0010C80F845C0022480F88B
:1026E0004440C1624FF480185F1E1CE00220BDE828
:1026F000F08301EB4514C4F80080C5EBC51606EB6A
:10270000460602EB8606A660C66926B9266846F428
:102710004009C4F80090BD4203D204F12006E660EF
:1027200000E0E1606D1C9D42E3D3026802F5805237
:10273000116180F844C0002180F845100020D6E7E0
:1027400010B50446022084F84400204600F0B8F991
:10275000002004F8440F607010BD000010B504A004
:1027600003F032F8BDE8104004A003F02DB80000DB
:102770000D0A5B4552525D203E3E20006574682084
:102780006572720A0000000010B590F8451001292A
:1027900013D0012380F84530022180F84410816A6B
:1027A0000A680024002A29DB0A68D20518D5826B42
:1027B000521C8263012A02D002E0022010BD016394
:1027C0002830C1600A68C2F30D42121F426182685C
:1027D00092688261C968016003774477002010BD68
:1027E0000A68920505D5016344638363C968816201
:1027F00004E0826B521C8263C968816200F8443F26
:102800004470012010BD70B50446206800F580506A
:1028100041694FF0000649064FF001050CD52046EE
:1028200000F026FA2068402100F58050416184F8CC
:10283000445084F845600DE04069C0070AD0204646
:1028400000F0E1FA206800F58050456184F84450BA
:1028500084F8456020684FF4803100F58050416174
:10286000206800F58050406900040CD52046FFF731
:1028700075FF20684FF4004100F58050416184F8F5
:10288000445084F8456070BD2DE9FC4704464FF084
:102890000008CDF80480C146002C03D094F8440011
:1028A00018B107E00120BDE8FC8784F84580204688
:1028B00000F038F97848016841F48041016000680F
:1028C00000F4804000907548016821F40001016027
:1028D0000168226A11430160206800F58050016898
:1028E00041F00101016000F061FC05464FF4FA7609
:1028F0000AE000F05BFC401BB04205D9032084F8DD
:10290000440084F84580CEE7206800F580500068D8
:10291000C007EED12068006920F01C0500F06CFDB6
:102920005F49604A0144914202D245F0080516E031
:102930005D495E4A0144914202D245F00C050EE029
:102940005B495C4A0144914209D35B4908445B49B5
:10295000884202D245F0040501E045F010052068E8
:1029600005614FF400420021204600F04DFA012598
:1029700038B101212046FFF729F984F8445001209D
:1029800091E70520FFF756FE6068E0B300F00EFC0B
:10299000074641F2883601AA0121204600F026F9B7
:1029A00000F004FCC01BB04209D901212046FFF70A
:1029B0000DF984F8445084F84580032073E70198AA
:1029C0004007E8D54FF480520021204600F01CFA61
:1029D00038B101212046FFF7F9F884F8445001206E
:1029E00061E700F0E3FB074601AA0121204600F061
:1029F000FDF800F0DBFBC01BB0420BD901212046E3
:102A0000FFF7E4F800E028E084F8445084F84580BB
:102A1000032048E701988006E6D501AA1F21204639
:102A200000F0E4F838B101212046FFF7CFF884F830
:102A30004450012037E70198C10603D54FF40061E7
:102A4000E16001E0C4F80C80400702D5C4F80880BA
:102A50001AE04FF48040A06016E0E0680021C0F367
:102A6000CF02A068C0F34F000243204600F0CCF92B
:102A700038B101212046FFF7A9F884F8445001201D
:102A800011E70520FFF7D6FD49462046FFF79EF8DF
:102A900084F84450002006E74438024004380140DE
:102AA00000D3CEFEC0E1E40040F1E9FD40787D01B5
:102AB00000796CFC005A6202001F0AFA80F0FA02E8
:102AC00010B500681249884221D11248016821F0EE
:102AD00080610160016821F000610160016821F0FE
:102AE0000071016032210C4800F0CCF986210B48BE
:102AF00000F0C8F90A4C4FF40061204600F0C2F91A
:102B00002046BDE810404FF4C04100F0BBB910BDF5
:102B100000800240303802400008024000000240BD
:102B2000001802402DE9F04186B000682A49884229
:102B30004ED13220019002240294002503950326F1
:102B400004960B27059701A9244800F039FA86203E
:102B50000190029403950496059701A9204800F07E
:102B60002FFAA00201900294039504960597DFF8CE
:102B7000748001A9404600F023FA7003019002948A
:102B800003950496059701A9404600F019FA002222
:102B900006213D2000F05CFB3D2000F04EFB12487A
:102BA000016841F000710160016801F0007100915D
:102BB000016841F080610160016801F0806100916D
:102BC000016841F000610160006800F00060009061
:102BD00006B0BDE8F081000000800240000802401D
:102BE0000000024000180240303802402DE9F04752
:102BF0000446914694F8440082281DD0822084F82F
:102C000044002068026902F01C03228A4FF6FF7517
:102C100005EAC2221A434FF4F86303EA8111114313
:102C200021F0020141F00105056100F0BFFA0646FE
:102C300001274FF480380FE00220BDE8F08700F054
:102C4000B5FA801B404505D304F8447F002060702E
:102C50000320F2E720680569E807F0D120684069A1
:102C600080B2C9F8000084F844700020E5E7000055
:102C700008B50C48016881F08001016000200090D7
:102C800009486946006839F049F90098002807D0DA
:102C900006494FF080500860BFF34F8FBFF36F8F2E
:102CA00008BD000014140240BC00001004ED00E058
:102CB00070B5044694F84500012819D0012584F820
:102CC0004550022084F844002046FFF758F820467B
:102CD000FFF744F82046FEF739FF2046FEF71BFFBA
:102CE0002046FEF710FF04F8445F0020607070BDBE
:102CF000022070BDF0B5002390F84520012A11D0C4
:102D0000012780F84570022280F84420002659B13E
:102D1000C46A2268002A0CDA122100F8441F4670A7
:102D20000120F0BD0220F0BD00F8447F4670012074
:102D3000F0BD40F2F455A9420AD9B1FBF5F2B1FB5E
:102D4000F5FC05FB1C1CBCF1000F02D0521C00E07E
:102D50000122012A44D1226842F040522260C26A14
:102D6000C1F30C015160C16A0A6842F000420A6076
:102D7000C16AC968C16235E0C46AD4F800C02CF0E9
:102D8000405CC4F800C033B9C46AD4F800C04CF049
:102D9000805CC4F800C0C46A6560541EA34214D1AC
:102DA000C46AD4F800C04CF0005CC4F800C0C2F1A2
:102DB0000104C4EBC41404EB440401EB8404D0F814
:102DC0002CC0C4F30C04CCF80440C46AD4F800C08E
:102DD0004CF0004CC4F800C0C46AE468C4625B1CD8
:102DE0009342C9D3016801F580514A69520705D55C
:102DF00004224A61016801F580514E6000F8447F69
:102E000046700020F0BD70472DE9F041044694F86B
:102E10004400422820D0422084F8440020680369FE
:102E200003F01C03258A4FF6FF7606EAC5251D43ED
:102E30004FF4F86303EA8111294341F0020141F0A4
:102E4000010591B241612068056100F0AFF90646C5
:102E500001274FF480380FE00220BDE8F08100F038
:102E6000A5F9801B404505D304F8447F002060701D
:102E70000320F2E720680569E807F0D184F8447080
:102E8000EBE700002DE9F04F0023DFF80C814FF055
:102E9000010C0F270CFA03F201EA0204944275D1E7
:102EA00006684FEA4309032505FA09F5AE430660B3
:102EB000DE0800EB8609D9F820A05E074FEAD66B42
:102EC00007FA0BFB2AEA0B0A3E46C9F820A0D0F805
:102ED000089029EA0509C0F80890D0F8049029EA7A
:102EE0000209C0F80490C268AA43C26023F003023A
:102EF00002EB0805D5F808284FEA83794FEA1979DB
:102F000006FA09F606EA020A244A904201D1002292
:102F100023E0234A904201D101221EE0214A90423F
:102F200001D1022219E0204A904201D1032214E08B
:102F30001E4A904201D104220FE01D4A904201D165
:102F400005220AE01B4A904201D1062205E01A4AF6
:102F5000904201D1072200E0082202FA09F252450C
:102F600014D1D5F80828B243C5F80828134A1568C3
:102F7000A5431560121D1568A5431560121D15683F
:102F8000A5431560121D1568A54315605B1C102B29
:102F900080D3BDE8F08F0000003001400000024007
:102FA0000004024000080240000C024000100240F1
:102FB0000014024000180240001C0240003C014086
:102FC0002DE9F84F0022DFF89091DFF88C8109F1AC
:102FD00008094FF0010E4FF00F0C09F1040A0EFA28
:102FE00002F60B683340B34271D14C68022C01D019
:102FF000122C11D1D40800EB84073D6A5407E40E6B
:103000000CFA04FB25EA0B05D1F810B00BFA04FB0F
:103010004BEA050BC7F820B0076854000325A5400C
:10302000AF4391F804B00BF0030B0BFA04FB4BEA2F
:10303000070BC0F800B04F68012F05D0022F03D056
:10304000112F01D0122F11D18768AF43D1F80CB0E6
:103050000BFA04FB4BEA070BC0F808B04768B7430C
:103060000E79C6F3001696403E434660C668AE43EE
:103070008D68A5403543C5604C68E40065D5374C84
:10308000256845F480452560246804F48044009454
:10309000334C22F003052544D5F808789407260F11
:1030A0000CFA06F4A7432F4CA04201D1002424E0DF
:1030B0002D4CA04201D101241FE02C4CA04201D193
:1030C00002241AE02A4CA04202D1032415E03CE07D
:1030D000284CA04201D104240FE0274CA04201D18A
:1030E00005240AE0254CA04201D1062405E0244C29
:1030F000A04201D1072400E00824B4403C43C5F8B5
:103100000848D8F800409C434D68ED0300D51C43A7
:10311000C8F80040104D2D1D2C689C434E68B60326
:1031200000D51C432C60D9F800409C434D68ED024B
:1031300000D51C43C9F80040DAF800409C434D68B4
:10314000AD0200D51C43CAF80040521C102AFFF4FF
:1031500046AFBDE8F88F0000003C01404438024013
:10316000003001400000024000040240000802401C
:10317000000C0240001002400014024000180240FF
:10318000001C02400069084201D001207047002065
:103190007047002A01D0816170470904816170473E
:1031A00001480068000C7047002004E00148806876
:1031B0007047000004000020024881680278114432
:1031C000816070470400002010B50948016841F48F
:1031D00000710160016841F480610160032000F02A
:1031E00057F80F2000F006F800F026F8002010BD78
:1031F000003C024070B504460D4D4FF47A712878BA
:10320000B1FBF0F00B490968B1FBF0F000F053FBA3
:1032100008B1012070BD102C07D200222146501E9B
:1032200000F016F86C60002070BD012070BD000039
:103230000400002000000020704700F01F02012160
:1032400091404009800000F1E020C0F80011704773
:10325000F0B40D460D4B1B68C3F30223C3F1070402
:10326000042C00D90424191D072901D2002300E0F1
:10327000DB1E012606FA04F1491E294099409E40B2
:10328000761E16403143F0BC01F0B0BE0CED00E0FC
:1032900000F00701054A10684FF6FF03184040EAA6
:1032A0000120034908431060704700000CED00E066
:1032B0000000FA052DE9F04704460D46002C13D016
:1032C000DFF82491D9F80000EFB200F00F00A84217
:1032D0000CD289F80070D9F8000000F00F00A84265
:1032E00004D00120BDE8F0870120FBE720683F4EB5
:1032F000810712D5400703D5306840F4E0503060B4
:103300002078000703D5306840F4604030603068B2
:10331000A16820F0F000084330602078C00731D069
:10332000324960680839012808D002280BD00328E8
:1033300009D0096889070BD40120D3E709688903FC
:1033400006D40120CEE70968890101D40120C9E72C
:10335000316821F0030101433160FFF727FF804608
:1033600041F2883A07E0FFF721FFA0EB0800504543
:1033700001D90320B6E73068616800F00C00B0EBBB
:10338000810FF0D1D9F8000000F00F00A84209D950
:1033900089F80070D9F8000000F00F00A84201D0B1
:1033A00001209FE72078400705D53068E16820F4C8
:1033B000E050084330602078000706D53068216966
:1033C00020F4604040EAC100306000F03BF8316812
:1033D000074AC1F30311515CC840064908600F2039
:1033E000FFF708FF00207DE7003C0240083802405C
:1033F00096C40308000000200148006870470000E0
:103400000000002000B5FFF7F7FF04490968044AEF
:10341000C1F38221515CC84000BD00000838024061
:10342000A6C4030800B5FFF7E7FF04490968044A8A
:10343000C1F34231515CC84000BD00000838024071
:10344000A6C4030810B51748006810F00C01164810
:1034500016D0164B042912D0082911D1114C241F63
:10346000216801F03F02216849020AD52068C0F3B3
:103470008810A0FB03010023FCF704FF09E01846B5
:1034800010BD21680023C1F38811A1FB0001FCF7E6
:10349000F9FE2168C1F30141491C4900B0FBF1F07C
:1034A00010BD0000083802400024F40040787D017F
:1034B0002DE9F84F0446002C10D02078DC4DC007D1
:1034C00057D0DB4808300168C1F3810101290DD0D4
:1034D0000068C0F38100022803D00EE00120BDE89F
:1034E000F88FD348001D0068400206D52868800385
:1034F0003FD5606870BB0120F1E76068B0F5803FA0
:1035000010D0B0F5A02F12D0286820F480302860A9
:10351000286820F4802028606068E0B1FFF746FE4C
:10352000064614E0286840F480302860F4E72868F4
:1035300040F480202860286840F480302860EBE761
:10354000FFF734FE801B642801D90320C7E72868F1
:103550008003F5D50DE0FFF729FE064606E0FFF7EC
:1035600025FE801B642801D90320B8E72868800362
:10357000F5D42078AF4F80074FF0000849D5AC480C
:103580000830016811F00C0F09D00068C0F3810009
:10359000022814D1A648001D006840020FD42868F4
:1035A000800704D5E068012801D0012097E728684A
:1035B000216920F0F80040EAC100286029E0E068B5
:1035C000B8B101203860FFF7F1FD064606E0FFF7CD
:1035D000EDFD801B022801D9032080E728688007C1
:1035E000F5D52868216920F0F80040EAC10028607C
:1035F0000FE0C7F80080FFF7D9FD064606E0FFF7A9
:10360000D5FD801B022801D9032068E728688007C0
:10361000F5D42078000729D5DFF81492864861692F
:1036200009F1740989B101210160FFF7BFFD064668
:1036300006E0FFF7BBFD801B022801D903204EE7FF
:10364000D9F800008007F4D510E0C0F80080FFF73B
:10365000ADFD064606E0FFF7A9FD801B022801D953
:1036600003203CE7D9F800008007F4D42078400715
:1036700072D50026DFF8B8A10AF1400ADAF8000096
:10368000C0000BD4DAF8000040F08050CAF8000007
:10369000DAF8000000F0805000900126DFF89CB1BD
:1036A000DBF80000C00515D4DBF8000040F48070A2
:1036B000CBF80000FFF77AFD814607E0FFF776FDC3
:1036C000A0EB0900022801D9032008E7DBF800007D
:1036D000C005F3D5DFF858B1A0680BF1700B0128D5
:1036E00013D0052818D0DBF8000020F00100CBF83B
:1036F0000000DBF8000020F00400CBF80000A06818
:1037000030B3FFF753FD81461DE0DBF8000040F0C9
:103710000100CBF80000F2E7DBF8000040F0040005
:10372000CBF80000DBF8000040F00100CBF800000F
:10373000E5E7FFF73BFDA0EB090141F2883081424C
:1037400001D90320CBE6DBF800008007F1D512E0B9
:10375000FFF72CFD81460AE015E0FFF727FDA0EBFF
:10376000090141F28830814201D90320B7E6DBF834
:1037700000008007F1D4012E05D1DAF8000020F016
:103780008050CAF80000A069C0B32949083109680F
:10379000C1F38101022949D0022805D0C7F8608011
:1037A000FFF704FD04463CE0C7F86080FFF7FEFC2D
:1037B000064606E0FFF7FAFC801B022801D9032029
:1037C0008DE628688001F5D4D4E907010843616AD1
:1037D000A26A4FF0FF33890103EB520241EA024132
:1037E000084394F82C1040EA01611148001D016063
:1037F00001203866FFF7DAFC044607E014E0FFF723
:10380000D5FC001B022801D9032068E62868800146
:10381000F5D509E0FFF7CAFC001B022801D90320F7
:103820005DE628688001F5D4002058E6012056E6C0
:103830000038024000004742800E474200700040BE
:1038400070B504460E461546002C03D094F8490086
:1038500010B107E0012070BD002084F84800204628
:1038600000F01AF804F108012068FEF7F3FA314677
:10387000A2682068FEF718FBD4E901022946236BF1
:10388000FEF7C8FAA168206850F8212042F0010232
:1038900040F82120002070BD70474FF0E02104283F
:1038A00004D0086920F0040008617047086940F0FE
:1038B00004000861704710B5401EB0F1807F01D34D
:1038C000012010BD4FF0E02460610F21601701F06E
:1038D0008DFB0020A06107202061002010BD70B585
:1038E0000446002C04D094F83900002510B106E0FD
:1038F000012070BD84F83850204600F023F82420C1
:1039000084F839002068C16821F40051C160204664
:1039100001F0F0FC2068016921F490410161206808
:10392000416921F02A0141612068C16841F40051D8
:10393000C160E563202084F8390084F83A00002053
:1039400070BD000030B587B01D48016841F010011E
:103950000160006800F010000190194814380168F7
:1039600041F001010160016801F00101019101686C
:1039700041F001010160006800F0010001904FF486
:103980000070029002200390012004900320059013
:10399000072406940B4D02A92846FFF711FB2915B1
:1039A0000291069402A92846FFF70AFB0122002192
:1039B0002520FFF74DFC2520FFF73FFC07B030BD69
:1039C00044380240000002402DE9F84304460D4609
:1039D00091461E4694F83900202802D00220BDE806
:1039E000F883B5B1B9F1000F13D094F8380001286D
:1039F00011D0012084F838000027E763212084F8E3
:103A00003900FFF7D3FB8046A4F82490A4F8269051
:103A10002DE00120E3E70220E1E7E08C401EE08496
:103A2000A068B0F5805F09D043460022802120467F
:103A3000009601F0E9FDB0B10320D0E74346002233
:103A400080212046009601F0DFFD08B10320C6E783
:103A500028882168C0F308004860206908B16D1CFF
:103A600005E0AD1C03E0216815F8010B4860E08C0F
:103A70000028D2D14346002240212046009601F082
:103A8000C3FD08B10320AAE72020383460702770F6
:103A90000020A4E730B587B000212348026842F037
:103AA00008020260026802F008020192026842F015
:103AB00008020260026802F008020192026842F005
:103AC00008020260026802F008020192026842F0F5
:103AD00040020260006800F04000019080200290E7
:103AE00011200390049103240594104D02A9284647
:103AF000FFF766FA0821029102A92846FFF760FA4B
:103B0000402102910121039102210491059402A90F
:103B10002846FFF755FAA815029002A90448FFF7B6
:103B20004FFA07B030BD000030380240000C0240B0
:103B30000018024000B585B04FF4807000900A482C
:103B40000190002002900320039069460748FFF788
:103B500037FA012211461720FFF77AFB1720FFF7EB
:103B60006CFB05B000BD0000000011100018024001
:103B700070B506460D46144612F09AF846F001005C
:103B800012F06CF812F0B8F888B112F0A7F8012022
:103B900070BD012C03D112F029F812F09FF812F039
:103BA00039F805F8010B641EA4B212F003F8002CDA
:103BB000EFD112F093F8002070BD00002DE9F04124
:103BC00086B04FF48074019401200290022003908B
:103BD000032504950E4F01A93846FFF7F1F90D4E64
:103BE000A0033060DFF830804046FDF783FF4020BF
:103BF00030604046FDF77EFF019400210291039161
:103C0000049501A93846FFF7DBF906B0BDE8F0815D
:103C100000180240180C0240FFFF0F0010B5FFF71C
:103C200039FFFFF7CBFFBDE81040FFF783BF70B54A
:103C300005460E460024002014E004EB440005EB8A
:103C400080039978C90706D09A8815F820009968EA
:103C5000FFF78EFF05E01A7915F82000996800F04B
:103C600008F8641C08B9B442E7D1002800D1204606
:103C700070BD2DE9F04180460E46154612F02EF833
:103C800000244FF47A7712F013F8404611F0E6FF63
:103C900012F032F818B1641CA4B2BC42F3D3BC4297
:103CA00006D00BE0307811F0D9FF12F025F820B1E2
:103CB00012F014F80120BDE8F081761C6D1EEDB203
:103CC000F0D212F00BF80020F5E7000004490028BC
:103CD00002D04815086070474FF0007008607047C8
:103CE0001814024070B514461D462B46224600F0BB
:103CF00033F9044904FB05F00989BDE8704000F080
:103D00003BB800001000002001B502E00098401E02
:103D1000009000980028F9D108BD000030B4144884
:103D20004FF0204101601349416000F1500204232B
:103D30001360002151609360D160116151619C0654
:103D400094618360C1600822026110224261816136
:103D5000C161416212028262C16201634163816397
:103D60001102C16300F1500230BC1146FFF768BD7B
:103D7000E8A70020040100A070B505460E46002407
:103D80002C2000F0B1FA03E0304600F0B1FA641CD8
:103D9000AC42F9D370BD2DE9F0411646069D1F4691
:103DA00000243B46324600F0D7F82C2000F09CFA65
:103DB0007E4304E035F8020B00F09AFA641CA64238
:103DC000F8D8BDE8F081000010B586B02C48016835
:103DD00041F008010160016801F0080100910168EB
:103DE00041F010010160016801F0100100910168CB
:103DF00041F020010160016801F02001009101689B
:103E000041F040010160006800F0400000901C4853
:103E10000830016841F001010160006800F0010014
:103E20000090012002900390032004904FF48060E2
:103E3000019001A91348FFF7C3F84FF40060019007
:103E4000114C01A92046FFF7BBF8022102910C2179
:103E500005914CF23371019101A90C48FFF7B0F8BC
:103E60004FF68071019101A90948FFF7A9F840F2C6
:103E70000121019101A92046FFF7A2F806B010BD6B
:103E8000303802400018024000140240000C02408A
:103E90000010024070B50446072C3FD8204D2C700E
:103EA000E2074FF4F0704FF4487134D06980A88075
:103EB000362000F019FA600100F01AFA2A2000F00A
:103EC00013FA002000F014FA002000F011FA6888BC
:103ED000401EC0F3072000F00BFAA878401EC0B2C5
:103EE00000F006FA2B2000F0FFF9002000F000FAA5
:103EF000002000F0FDF9A888401EC0F3072000F064
:103F0000F7F92879401EC0B200F0F2F9BDE8704020
:103F10002C2000F0E9B96880A980C9E770BD0000D5
:103F20001000002010B5FFF74FFFFFF7F7FE00F07D
:103F3000C7F900F03DF8074C2078FFF7ABFF0021F0
:103F4000A38862880846FFF7CDFEBDE81040012037
:103F5000FFF7BCBE100000202DE9F04104460D46DD
:103F600017461E462A2000F0BFF9200A00F0C0F9CB
:103F7000E0B200F0BDF93C44641EC4F30F2000F031
:103F8000B7F9E0B200F0B4F92B2000F0ADF9280A3F
:103F900000F0AEF9E8B200F0ABF9AC19641EC4F35E
:103FA0000F2000F0A5F9E0B2BDE8F04100F0A0B9A3
:103FB00010B5FF2000F098F9FF2000F099F9982043
:103FC00000F096F9062000F093F9BA2000F08CF981
:103FD000602000F08DF9BC2000F086F9012000F08F
:103FE00087F90E2000F084F9612000F081F9FB20B0
:103FF00000F07EF9102000F07BF9102000F078F935
:104000000B2000F075F90F2000F072F92E2000F05F
:104010006FF9732000F06CF9FF2000F069F9FF20C0
:1040200000F066F90E2000F063F90E2000F060F950
:10403000002000F05DF9032000F05AF9662000F03E
:1040400057F9632000F054F9012000F051F90020E5
:1040500000F04EF9002000F04BF9BD2000F044F9CB
:10406000012000F045F9232000F042F9452000F03E
:104070003FF9672000F03CF9012000F039F92320D6
:1040800000F036F9452000F033F9672000F030F9F0
:10409000BE2000F029F9002000F02AF9212000F0CC
:1040A00027F9AB2000F024F9602000F021F922204C
:1040B00000F01EF9222000F01BF9222000F018F970
:1040C000222000F015F9222000F012F9C72000F09C
:1040D0000BF96F2000F00CF9ED2000F005F97F20BE
:1040E00000F006F90F2000F003F9002000F000F9BD
:1040F000C02000F0F9F8372000F0FAF80B2000F0AB
:10410000F7F80A2000F0F4F8FC2000F0EDF80A209F
:1041100000F0EEF8DF2000F0E7F8002000F0E8F80B
:10412000002000F0E5F8002000F0E2F8002000F0A8
:10413000DFF8002000F0DCF8202000F0D9F8F320B0
:1041400000F0D2F8742000F0D3F8B42000F0CCF8DE
:10415000002000F0CDF8002000F0CAF8002000F0A8
:10416000C7F8F72000F0C0F88A2000F0C1F8B120AD
:1041700000F0BAF8002000F0BBF8122000F0B8F808
:10418000132000F0B5F8F22000F0AEF8802000F027
:10419000AFF85B2000F0ACF8402000F0A9F8282030
:1041A00000F0A6F8C12000F09FF8172000F0A0F85A
:1041B0007D2000F09DF87A2000F09AF8202000F091
:1041C00097F8E02000F090F8002000F091F811201E
:1041D00000F08EF81C2000F08BF80E2000F088F81C
:1041E0000F2000F085F80C2000F082F8C72000F0C6
:1041F0007FF8062000F07CF8062000F079F80A200D
:1042000000F076F8102000F073F8122000F070F83B
:104210000A2000F06DF8102000F06AF8022000F08B
:1042200067F8002000F064F8E12000F05DF800205D
:1042300000F05EF8122000F05BF8182000F058F84B
:104240000C2000F055F80F2000F052F80A2000F082
:104250004FF8772000F04CF8062000F049F80720CE
:1042600000F046F80A2000F043F80E2000F040F875
:104270000B2000F03DF8102000F03AF81D2000F06F
:1042800037F8172000F034F8002000F031F835201E
:1042900000F02AF8002000F02BF83A2000F024F873
:1042A000552000F025F8112000F01EF84FF4A04032
:1042B000FDF717FCBDE81040292000F015B80000FC
:1042C00070B5084C4FF00060206047F2305528462A
:1042D000FFF71AFDE11421602846BDE87040FFF7A2
:1042E00013BD0000181402404FF0D0410880704701
:1042F0004FF0D04148807047F0B587B01B48016847
:1043000041F020010160016801F020010191016884
:1043100041F020010160016801F020010191016874
:1043200041F020010160006800F02000019040246D
:104330000294012003900490032005900C4F02A9E1
:104340003846FEF73DFE8025029502A93846FEF765
:1043500037FEA600029602A93846FEF731FE044851
:10436000183004600560066007B0F0BD30380240C8
:1043700000140240FEB505460E4614460020029089
:10438000019301A82CF002FF8DF80800029BC3F3F3
:10439000C0003070C3F3031028706946019800F024
:1043A00087F9019901440191009A8B18591A022941
:1043B00004DB01A82CF0F0FE20800120FEBD7FB5BB
:1043C00005460E460020039002920024009002A8A9
:1043D0002CF0DCFE8DF80C000398C0F303100228CB
:1043E0001AD101A9029800F063F902990446421813
:1043F000029201981044801A02280DDB02A82CF0CA
:10440000C5FE8DF80000009800F00100287002A899
:104410002CF0BCFE3070012404B0204670BD2DE9A4
:10442000FE4F0D46DDE90CB9DDE90EA10646174643
:1044300098460020029001910024009001A82CF0E1
:10444000A5FE8DF808000298C0F3031103292BD1B3
:10445000C0F3C0013170C0F34101296000F00100D8
:1044600038706946019800F023F901990446084420
:10447000019000994618324601A958462CF095FE45
:1044800090B10198301A0FD42868002804DD01A8E3
:104490002CF082FEA8F800000198301ACAF800003B
:1044A0000198C9F8000001242046BDE8FE8F2DE9DF
:1044B000FE4F82460C980E4614461F464FF00009E8
:1044C000CDF808900190C84601A82CF05FFE8DF849
:1044D00008000298C0F30310092827D16946019803
:1044E00000F0E6F8019980460844019000994518CB
:1044F000281A02281ADB01A82CF04EFEAAF80000A8
:10450000C4F800900DE02068B04202DD4FF0FF38A3
:104510000CE001A82CF03AFE2268511C216047F8FB
:1045200022000198A842EED34FF001084046BDE8B2
:10453000FE8F2DE9F041ADF5087D0546DDF83882A6
:1045400014461F464FF4FA76002309930A9300207D
:104550000891012C1AD0022C18D00024CDE905783E
:1045600008A986C9CDE90327CDE900300291234689
:10457000002231460BA800F00DFA0146002908DCA4
:104580004FF0FF300DF5087DBDE8F081FDF740FFED
:10459000E4E70BA835F09CFF002802DA6FF0010079
:1045A000F0E73CB16FF00207012C05D0022C0ED0D1
:1045B000781FE7E70020E5E705220421284601F0FF
:1045C000DDF8002801DA3846DCE70120DAE70522C9
:1045D0001146284601F0D2F8002801DA3846D1E722
:1045E0002B46002231460BA800F026FA014639B1CD
:1045F0000BA835F06DFF002805DA6FF00500C1E764
:104600006FF00300BEE705221146284601F0B6F818
:10461000002802DA6FF00600B4E70220B2E70000DB
:1046200038B50C461D462846FBF7C2FE80B2009006
:1046300010482B46224602A14068FFF77AFF38BD9A
:10464000247379732F58353836316A393930472F0A
:1046500073746D3332663430377A6774362F74680A
:10466000696E672F70726F70657274792F706F73D7
:104670007400000018000010F8B507460E4601242B
:104680000025002030606D1C042D0FDC01216846E0
:10469000B84701280AD19DF80020306802F07F0158
:1046A00001FB04003060E4011006ECD42846F8BD9C
:1046B000024A10600248FFF7DFBF0000FC00002044
:1046C000018E000810B504460020CA1701EB5263A2
:1046D00023F07F02891ACAB2D911002901DD42F004
:1046E0008002034600F10100E254EEDC10BD000040
:1046F000401C802801DA401C7047B0F5804F01DA79
:10470000801C70470349884201DAC01C7047001DB5
:1047100070470000FFFF1F002DE9FC4104460F46D3
:1047200015464FF0FF3600200190009001212046F1
:10473000A847012818D169462846FFF79DFF601C4D
:104740000099FFF7BFFF401C00990A18BA420BDC22
:1047500021B12044A8470099884205D120788DF8DE
:1047600004000198C0F303163046BDE8FC817CB517
:104770000546069E002401940095042901DAA01E36
:104780007CBD62F3071463F3C3040194062A15D0B9
:1047900024F0060201929DF80410684637F091F863
:1047A00002210098FFF78EFF0099084400903146DF
:1047B000684637F08CF80098401B7CBD24F0060258
:1047C000921CE7E72DE9FE4305460F461446029585
:1047D000002601960096204600F092F88046FFF7EA
:1047E00087FFB84202DDB01EBDE8FE838DF804608D
:1047F000019820F0F000103001909DF8041002A8FC
:1048000037F05FF841460298FFF75CFF02990844D1
:104810000290207A042813D035A102A837F03DF881
:10482000032102A837F04DF88DF80060A17E0098B2
:1048300061F341000090E17E59B140F004000AE0CC
:104840002DA102A837F029F8042102A837F039F881
:10485000EAE720F004000090410708D594F83D10E5
:1048600061F3C40094F83C1061F345100090206C93
:1048700008B9A06C18B1009840F080000090E06C7E
:1048800008B9606D18B1009840F0400000909DF8A4
:10489000001002A837F015F8218B02A837F017F89E
:1048A000D4E9042302A8E16837F020F8E07E58B18B
:1048B000D4E90A2302A8616A37F018F8D4E90D2375
:1048C00002A8216B37F012F8009E300605D5D4E916
:1048D000112302A8216C37F009F8700604D54C3476
:1048E00002A80ECC37F002F80298401B7CE70000CB
:1048F0004D514973647000004D5154540000000044
:1049000070B504460025207A032802D0042802D07E
:1049100002E00C2500E00A25D4E90412E06800F06A
:104920006BFA0544AD1CE07E68B1D4E90A12606AF6
:1049300000F062FAD4E90D120646206B00F05CFA32
:10494000304405442D1D206C08B9A16C29B1D4E96F
:10495000111200F051FA0544AD1CE06C08B9616D0C
:1049600029B1D4E9141200F047FA0544AD1C2846D9
:1049700070BD0C2200F0C7B808B5002300920422D5
:10498000FFF7F5FE08BD08B5002300920722FFF7E8
:10499000EEFE08BD2DE9FE4F0546DDE90C9A129E9C
:1049A0000F4690461C460295002001900EA90096E5
:1049B0000EC9204600F032F88346FFF799FEB84250
:1049C00003DD6FF00100BDE8FE8F302068F3C30007
:1049D00064F3420069F3000001909DF8041002A8FE
:1049E00036F06FFF59460298FFF76CFE02990844B3
:1049F00002900EA902A80EC936F078FF002C03DD44
:104A0000514602A836F063FF324611990298FBF72F
:104A100091FC029830440290401BD4E77FB50546D4
:104A2000089C01A807C800F0E7F92044801C002D6D
:104A300000DD801C04B070BD08B50093134606224B
:104A4000FFF795FE08BD2DE9FF4F83B00646DDE96F
:104A50001189109F8A4693460296002501950024ED
:104A60004146384600F039F80090FFF741FE5045C6
:104A700003DDA01E07B0BDE8F08F8DF8045001984B
:104A800020F0F00080306BF3C30020F00600801CA3
:104A900001909DF8041002A836F013FF00990298C7
:104AA000FFF710FE02990844029002A8069936F01A
:104AB0000EFF0DE004EB440008EB800502A80ECDCC
:104AC00036F014FF19F8241002A836F0FAFE641C20
:104AD000BC42EFDB0298801BCCE72DE9F041064693
:104AE0000F460225002409E004EB440007EB800395
:104AF00007CB00F081F90544ED1C641CB442F3DBE4
:104B00002846BDE8F0811CB50446002001900094C1
:104B1000022901DA801E1CBD8DF80400019862F3A1
:104B2000071001909DF80410684636F0CAFE002177
:104B30000098FFF7C7FD009901440091081B1CBDB8
:104B40002DE9F043A7B00446002026902590642765
:104B500009900A900B90022304930590069004F0AC
:104B60000700012303FA00F6E01704EB5070C510AC
:104B70000DF11808042C04D218F80500304308F889
:104B800005000991089209A9DFF8AC90CDE9003140
:104B900008A80290D9F808000022411C83B2C9F885
:104BA000081039460CA8FFF74EFF01460CA835F057
:104BB0008FFC002804DA4FF0FF3027B0BDE8F08307
:104BC00004A8002300901A4606A9601C27F0A0FD47
:104BD00090B1042C03D218F80500304202D16FF0D6
:104BE0000200EAE7154A39460CA8FFF795FD0928A7
:104BF00005D06FF00300E0E76FF00100DDE70CA8DF
:104C0000CDE9000707AB25AA012126A8FFF74FFC35
:104C1000012802D06FF00400CFE70798802806D063
:104C2000D9F80800BDF89810401E814202D06FF0FC
:104C30000500C2E70020C0E71800001065A40308C3
:104C400010B5CAB05822254934A8FBF773FBC82415
:104C500023A037903220ADF8E80025A044902748E3
:104C6000479004208DF8D80001208DF8EA0034AA7E
:104C7000214602A8FFF7A6FD014602A835F028FC50
:104C80001F4A214602A8FFF747FD022808D01DA0B1
:104C900000F09AFD1FA000F097FD02204AB010BD61
:104CA000234602AA694601A8FFF789FB012802D121
:104CB0009DF8000048B113A000F086FD9DF800109B
:104CC00019A000F081FD0120E8E70EA000F07CFDB6
:104CD0001CA000F079FD0020E0E70000B0C403084C
:104CE00073746D3332663430377A6774360000007F
:104CF00058353836316A393930470000F821040810
:104D000065A403080D0A5B44454255475D203E3EBD
:104D1000200000004D515454C1ACBDD3CEDECFECC9
:104D2000D3A6A3A10A000000CEDEB7A8C1ACBDD3B4
:104D3000A3ACB4EDCEF3B4FAC2EBCAC73A202564F3
:104D4000A3A10A00D3C3BBA7C3FBD3EBC3D8D4BF73
:104D5000D1E9D6A4B3C9B9A6A3AC4D515454C1AC42
:104D6000BDD3B3C9B9A6A3A10A0000002DE9F04143
:104D7000B6B004464FF0C80805200190002002900C
:104D8000039004F0070001268640E01704EB507002
:104D9000C51003AF042C02D2785D304378554146EC
:104DA00004A8FFF7E6FD014604A835F091FB01A831
:104DB000002300901A4603A9601C27F0A9FC98B1B3
:104DC000042C02D2785D304204D16FF0010036B07D
:104DD000BDE8F081074A414604A8FFF79DFC0D2875
:104DE00005D06FF00200F2E74FF0FF30EFE7002050
:104DF000EDE7000065A4030817B40098002803D06D
:104E000000981EBCFBF7D4BA01981EBC7047FEE7A1
:104E1000704700002DE9FF4752A000F0D5FC0025A7
:104E200027F058FA00221146202029F0F9FDDFF87A
:104E30005081C8F800000A21C161002871D07B228E
:104E4000504929F087FB04464F4803907B2203A971
:104E5000D8F8000029F0CEFB24B14CA000F0B4FC3F
:104E6000BDE8FF874D4E4FF4FA674FF47A795CE066
:104E70004BA000F0A9FCD8F8080029F09BFAD8F85C
:104E8000080029F097FA3E49D8F80000091D29F0DA
:104E90005BFE484636F06EFAD8F80440002C41D04C
:104EA00039463E48FBF76DFA246813E06289C5F580
:104EB000FA639A4205D91A4670196168FBF73AFA03
:104EC00003E070196168FBF735FA60890544BD425B
:104ED00002D82468002CE9D1002528212F4826F08B
:104EE000E5FA2E484838D0E9033241690833CDE964
:104EF00000320291D0E901230168521C2BA000F07E
:104F000063FCD8F8040029F055FAD8F8000029F01D
:104F1000AFFBD8F8000029F099FB002036F064FAC6
:104F200003E01BE0052036F025FA29F075FAC8F8F1
:104F30000800302129F0FCF9D8F808001749302280
:104F4000006830394068FBF7F5F9D8F80810D8F850
:104F5000000029F095FF002891D089E71EA000F0FD
:104F600033FC7DE74E54505F696E69742A2A2A2A01
:104F70002A2A2A2A2832292A2A2A2A2A2A2A2A00B6
:104F80003C000020B0DE0308781973144E5450B072
:104F9000F3B6A8CAA7B0DC0D0A00000058A900208B
:104FA000B7A2CBCDCAA7B0DC0D0A0000B1B1BEA933
:104FB000CAB1BCE4A3BA253032642D253032642D49
:104FC0002530326420253032643A253032643A2567
:104FD0003032640D0A0000004E5450C1ACBDD3B451
:104FE000B4BDA8CAA7B0DC0D0A0000000907090E6D
:104FF000002806DA00F00F0000F1E02080F8141D10
:10500000704700F1E02080F8001470472DE9FF4759
:1050100004460F469046002B29D0019300200290B1
:10502000039004F0070001268640E01704EB50705F
:10503000C5100DF10C09042C04D219F805003043F9
:1050400009F8050001A8002300901A4603A9601C76
:1050500027F05EFB4FF0FF3178B1042C03D219F832
:105060000500304203D1084604B0BDE8F087044A89
:1050700041463846FFF750FBF6E70846F4E70000E4
:1050800065A4030810B55020EFF3118480F3118854
:10509000BFF34F8FBFF36F8FFEF78EF837F016F820
:1050A000012801D036F0CCFC84F3118810BD00003B
:1050B00030B593B000252A48016841F08051016065
:1050C000006800F0805001902648016841F480415A
:1050D0000160006800F4804001900120029000040B
:1050E0000390022408948001099019200A904FF43B
:1050F000A8700B900C9407200D9002A8FEF7D8F929
:1051000000B1FEE70F200E900F9410954FF4A050C1
:1051100011904FF48050129005210EA8FEF7CAF8A6
:1051200000B1FEE7FEF768F94FF47A71B0FBF1F0D9
:10513000FEF7C1FB0420FEF7B0FB00221146501E13
:10514000FEF786F8FEF72CF841F20101884204D1FF
:105150000548016841F48071016013B030BD000062
:105160004038024000700040003C02401048016896
:1051700041F4700101600F48016841F001010160D4
:105180000C4A00210832116002680B4B1A40026081
:10519000031D0A4A1A60026822F480220260054850
:1051A0000C300160024958068039086070470000E1
:1051B00088ED00E000380240FFFFF6FE10300024CA
:1051C0003EB50021084633F0B3FC1A481849016087
:1051D00018496FF07F40091D0860091D16480860D6
:1051E00017490022134BCDE90021144808330290DF
:1051F0001A1F111F134829F065FF12482AF0F2F810
:10520000104C94F82D00400703D520462AF012F9DF
:1052100002E00C482AF0ECF86068010E0091C0F33F
:105220000743C0F30722C1B207A000F0CDFA3EBD8C
:10523000C0A81F99D4000010C0A81F01318C03081A
:10524000AD310108AC970010B1BEB5D84950B5D802
:10525000D6B7CAC73A25642E25642E25642E256448
:105260000A0A000008B523F075F915F0A5FB0546FC
:105270000A221146284622F05FFB32227821284676
:1052800022F0A1FB28461CF0C9FC044600231A4664
:10529000092120461EF0D9FB10A120461DF06AFB13
:1052A00023F058F91CF0BAFC04460EA120461DF06C
:1052B00061FB00231A46092120461EF0C6FB6FF051
:1052C0001300009000230B22214628461EF0CCFB41
:1052D00025F02AFB052036F04DF8F9E75465737484
:1052E0000000000048656C6C6F20776F726C642161
:1052F000000000002DE9F04104462068016921F416
:105300004052E168114301612068C26849F20C61B2
:105310008A432369A168E569194363692B431943EB
:105320001143C1602068416921F44071A2690A43B8
:105330004261E069B24AB34964253226B0F5004FB4
:1053400059D02068884201D090427DD1FEF76AF89A
:1053500000EBC00101EB001061688900B0FBF1F7C0
:10536000FEF760F800EBC00101EB001061688900F6
:10537000B0FBF1F0B0FBF5F06FF01801484307EB1C
:10538000800006EB0010B0FBF5F000F0F007FEF730
:1053900049F800EBC00101EB001061688900B0FB27
:1053A000F1F0B0FBF5F007EB0017FEF73BF800EB70
:1053B000C00101EB001061688900B0FBF1F8FEF755
:1053C00031F800EBC00101EB001061688900B0FB0F
:1053D000F1F0B0FBF5F06FF01801484308EB8000E6
:1053E00006EB0010B0FBF5F0216800F00F00384428
:1053F0008860BDE8F0812068884201D0904256D193
:10540000FEF710F800EBC00101EB001061684900E5
:10541000B0FBF1F0B0FBF5F00701FEF703F800EB8D
:10542000C00101EB001061684900B0FBF1F8FDF725
:10543000F9FF00EBC00101EB001061684900B0FB0F
:10544000F1F0B0FBF5F000E086E06FF018014843A2
:1054500008EB800006EBC000B0FBF5F000F0F800B0
:1054600007EB4007FDF7DEFF00EBC00101EB00108A
:1054700061684900B0FBF1F8FDF7D4FF00EBC00113
:1054800001EB001061684900B0FBF1F0B0FBF5F0F2
:105490006FF01801484308EB800006EBC000B0FB3A
:1054A000F5F0216800F0070038448860A1E7FDF7B7
:1054B000A9FF00EBC00101EB001061684900B0FBDF
:1054C000F1F0B0FBF5F00701FDF79CFF00EBC00128
:1054D00001EB001061684900B0FBF1F8FDF792FFA5
:1054E00000EBC00101EB001061684900B0FBF1F076
:1054F000B0FBF5F06FF01801484308EB800006EBB5
:10550000C000B0FBF5F000F0F80007EB4007FDF736
:1055100079FF00EBC00101EB001061684900B0FBAE
:10552000F1F8FDF76FFF00EBC00101EB00106168BF
:105530004900B0FBF1F0B0FBF5F06FF01801484303
:1055400008EB800006EBC000B0FBF5F0216800F02E
:105550000700384488604CE7FDF754FF00EBC001BA
:1055600001EB001061688900B0FBF1F7FDF74AFF1D
:1055700000EBC00101EB001061688900B0FBF1F0A5
:10558000B0FBF5F06FF01801484307EB800006EB25
:105590000010B0FBF5F000F0F007FDF733FF00EB73
:1055A000C00101EB001061688900B0FBF1F0B0FBB5
:1055B000F5F007EB0017FDF725FF00EBC00101EB4D
:1055C000001061688900B0FBF1F8FDF71BFF00EBEC
:1055D000C00101EB001061688900B0FBF1F0B0FB85
:1055E000F5F06FF01801484308EB800006EB00105F
:1055F000B0FBF5F0216800F00F0038448860F8E651
:1056000000140140001001402DE9F04104460E460F
:1056100017469846069D1DE0681C1BD02DB1FDF76E
:10562000C5FDA0EB0800A84214D92068C16821F488
:10563000D071C1602068416921F0010141612020E1
:1056400084F8390084F83A00002084F838000320F8
:10565000BDE8F0812068006836EA000004D0002030
:10566000B842D9D00020F3E70120F9E704480068E8
:105670000168C943890602D44168C9B241607047D4
:1056800020020020FEE7000010B5044617A000F03D
:105690009BF81AA000F098F8D4F8F80102280BD96A
:1056A000217869B1012912D0022917D00FA000F08A
:1056B0008BF81AA000F088F8002084F8300210BDA2
:1056C0000AA000F081F81BA000F07EF8F4E707A024
:1056D00000F07AF81DA000F077F8EDE703A000F0E5
:1056E00073F820A000F070F8E6E700000D0A5B44B4
:1056F000454255475D203E3E200000002A2A2A2AC6
:105700002ACAD5B5BDB6A9D4C4B5C4CFFBCFA2A310
:10571000A12A2A2A2A2A2A0A000000004D5154549C
:105720003E3EB4EDCEF3B5C4CFFBCFA2D6CAC1BFC7
:105730000A0000004D5154543E3ECFFBCFA2D6CAC2
:10574000C1BFA3BA516F53300A0000004D515454E9
:105750003E3ECFFBCFA2D6CAC1BFA3BA516F5331D1
:105760000A0000004D5154543E3ECFFBCFA2D6CA92
:10577000C1BFA3BA516F53320A0000002DE9F043B4
:10578000FDB081460E46174600254FF4FA780223F5
:10579000424669464846FFF739FC0446601C04D07F
:1057A000E0B24246694628F0BFFA6D1CEDB2B44241
:1057B00001D0BD42EBD3B44203D100207DB0BDE89F
:1057C000F0834FF0FF30F9E70FB4054B10B503A994
:1057D000044A029801F036FE10BC5DF814FB00008C
:1057E000D14701081C0200200FB4084B10B504A9D2
:1057F00002AA039801F026FE044602A9002002F046
:10580000B8F9204610BC5DF814FB0000737B00085B
:1058100010B52DED020B2DED088B84B09DED0C0B1A
:1058200051EC100BFBF768FA41EC180B9DED0C0BDB
:1058300053EC182B51EC100BFBF758FA41EC190BF9
:105840000D989FED290B10F0004F53EC102B51ECED
:10585000190B9FED21AB9FED22BB0ED0FBF7AEF8ED
:105860000ED953EC1B2B51EC190BFBF7BFF81CD2D4
:1058700014E000BF41EC180B17E0FBF79FF806D2CD
:1058800053EC1A2B51EC180BFBF730FAF2E753EC00
:105890001B2B51EC190BFBF7A9F806D853EC1A2B6C
:1058A00051EC180BFBF781F9E4E78DED028B9DEDD0
:1058B0000C0B18EE901A10EE900A8DED000B61F3B0
:1058C0001E0003909DED020B04B0BDEC088B02B0EE
:1058D00010BD000000000000000000000000F03FCC
:1058E000000000000000E03F000000000000E0BFFA
:1058F00002E008C8121F08C1002AFAD17047704799
:10590000002001E001C1121F002AFBD1704770B5D1
:10591000044600256FF02F0608E02068411C216036
:10592000007805EB850106EB4101451820680078F9
:1059300000F0C6F80028F0D1284670BD2DE9FF5FC1
:1059400082B00021DDE90430020DDDF840B00343F0
:1059500018D044F61050A2F2FF32424315141198A9
:1059600001281FD0A5EB0B00401C5FEA000A4FF096
:1059700000064E4FDFF83891B046504615D5CAF1B3
:10598000000413E0119801244AA3012801D16FEA11
:105990000B010298119AC0E90031C0E9024206B039
:1059A000BDE8F09FCBF10000DFE704460021404A4C
:1059B000491842EB0450CDE9001012E0E00707D08F
:1059C00032463B4640464946FAF7EAFE804689465B
:1059D00032463B4610461946FAF7E2FE06460F46A7
:1059E0006410002CEAD1DDE90401DDE90023BAF1FD
:1059F000000F06DAFAF7D4FE42464B46FAF7D0FE1D
:105A000005E0FAF73FFF42464B46FAF73BFF0446F4
:105A10000E460022284BFAF7E9FF03D84FF0FF307B
:105A2000014607E00022254B20463146FBF7BDF832
:105A3000FBF7B2F9102409E0002C0ADB0A2200234C
:105A4000FAF720FC039B30321A55641E50EA01021B
:105A5000F2D1641C039AC4F111031444119A012A6F
:105A600003D0012208430DD10AE0084304D00020EE
:105A70004FF0110B119072E7A3EB0B056D1E0DE0BB
:105A80005B4504DD4FF0000205F1010504E003DA97
:105A90004FF00002A5F10105002AECD002981199FF
:105AA000C0E90231C0E9004579E700000000144078
:105AB0000000F03F300000000000F0430000E03F35
:105AC0003038092801D8012070470020704730384D
:105AD0000A2801D2012070470020704710B54421E8
